:100000000C945D000C9433050C9433050C9433056B
:100010000C9433050C9433050C9433050C94330580
:100020000C9433050C9433050C9433050C94330570
:100030000C9400050C9433050C9433050C94330593
:100040000C9433050C9433050C9494030C943305F1
:100050000C9404040C9410030C9433050C94330595
:100060000C9433050C9433050C9433050C94330530
:100070000C9433050C9433050C9433050C94330520
:100080000C9433050C9433050C9433050C94330510
:100090000C9433050C9433050C9433050C94330500
:1000A0000C9433050C9433050C9433050C943305F0
:1000B0000C94330501000235800011241FBECFEFE0
:1000C000D8E0DEBFCDBFE4EBF0E040E017C0B59173
:1000D000A59135912591059107FD0CC095918591CC
:1000E000EF01F92FE82F05900D92A217B307D9F76A
:1000F000FE0104C01D92A217B307E1F7E93BF40724
:0E01000031F70E94CE030C948500F894FFCFD7
:0D010E0052756E6E696E67200025750A003F
:10011C002F923F924F926F927F928F929F92AF92BB
:10012C00BF92CF92DF92EF92FF920F931F93CF93D8
:10013C00DF93CDB7DEB762970FB6F894DEBF0FBE74
:10014C00CDBF6C013A01862E7901FC011086178215
:10015C00848181FFE7C19E012F5F3F4F3D872C8734
:10016C00C901A0E8888B998BAA8B9FE3992EF30188
:10017C00849187FC8081882309F4D0C1482D930198
:10018C002F5F3F4F4F4F853219F03901842E0AC033
:10019C00F901849147FD808192E0690E711C811CEC
:1001AC00853229F4B60190E00E945803E0CFB12CBF
:1001BC0000E010E01032A0F48B3269F030F48032A1
:1001CC0059F0833269F410612CC08D3239F08033D0
:1001DC0039F4116026C01260146023C0186021C06D
:1001EC0017FD29C090ED980F9A3078F416FF06C0D1
:1001FC00AAE0BA9E900D1124B92E13C0EAE00E9F0E
:10020C00900D1124092F10620CC08E3221F416FDB2
:10021C0085C1106406C08C3611F4106802C0883693
:10022C0051F4F301849187FC8081FFEF6F1A7F0AF0
:10023C008F0A8111BFCF982F9F7D9554933028F44E
:10024C0024E0E20EF11C99820FC0833631F0833723
:10025C0091F0833509F063C027C0F7018081898351
:10026C0097012E5F3F4F7901288839884A88AA2444
:10027C00A394B12C17C0A7014D5F5F4F5F874E87CA
:10028C00F70120803180428016FF03C04B2D50E0D7
:10029C0002C04FEF5FEF842DB1010E9486045C0118
:1002AC00EE84FF841F7718C097012D5F3F4F3F8767
:1002BC002E87F70120803180428016FF03C04B2D22
:1002CC0050E002C04FEF5FEF842DB1010E94860415
:1002DC005C011068EE84FF8413FD1DC0802F90E03C
:1002EC00A816B906C0F4B60180E290E00E9458034B
:1002FC000150F4CFF101849147FC8081FFEF2F1A5C
:10030C003F0A4F0AB60190E00E94580301110150B8
:10031C0021E0A21AB108A114B10461F7F5C084362A
:10032C0011F0893671F5F70117FF08C060817181F2
:10033C008281938197012C5F3F4F09C0608171814D
:10034C00072E000C880B990B97012E5F3F4F7901FC
:10035C001F76312E97FF0AC0909580957095619508
:10036C007F4F8F4F9F4F312F3068332E2AE030E074
:10037C00AE014F5F5F4F0E94B202482E4C85441A6B
:10038C004AC0853729F41F7EA12E2AE030E025C013
:10039C00512F597FA52E8F36C1F018F4883579F07E
:1003AC00BDC0803719F0883721F0B8C0852F806127
:1003BC00A82EA4FE0DC09A2D9460A92E09C014FF7E
:1003CC000AC0A52FA660AA2E06C028E030E005C002
:1003DC0020E130E002C020E132E0F701A7FE08C0C6
:1003EC006081718182819381A7014C5F5F4F07C04F
:1003FC006081718180E090E0A7014E5F5F4F7A01D0
:10040C00AE014F5F5F4F0E94B202482E5C85451AC9
:10041C008A2D8F77382E36FE0DC0932D9E7FA92EF8
:10042C004B1458F434FE0BC032FC09C0A32DAE7E25
:10043C00AA2E05C0142DA32C03C0142D01C01B2DF6
:10044C00A4FE0EC0FE01E40DF11D8081803321F469
:10045C00EA2DE97EAE2E08C0A2FE05C01E5F04C0C8
:10046C008A2D867809F01F5FA3FC11C0A0FE06C080
:10047C00101788F4040DB02EB11A0EC0101760F4CA
:10048C00B60180E290E00E9458031F5FF7CF10176F
:10049C0018F4011B02C0B42C00E0A4FE10C0B6017D
:1004AC0080E390E00E945803A2FE17C0A1FC03C099
:1004BC0088E790E002C088E590E0B6010CC08A2D78
:1004CC00867859F0A1FE02C08BE201C080E2A7FC45
:1004DC008DE2B60190E00E9458034B1438F4B6013B
:1004EC0080E390E00E945803BA94F7CF4A94E1E07D
:1004FC00F0E0EC0FFD1FE40DF11D8081B60190E0E2
:10050C000E9458034110F2CF002309F430CEB601FB
:10051C0080E290E00E9458030150F6CFF6018781EB
:10052C00908502C08FEF9FEF62960FB6F894DEBFF6
:10053C000FBECDBFDF91CF911F910F91FF90EF9028
:10054C00DF90CF90BF90AF909F908F907F906F90E7
:08055C004F903F902F9008958D
:10056400FA01AA27283051F1203181F1E8946F93E0
:100574006E7F6E5F7F4F8F4F9F4FAF4FB1E03ED086
:10058400B4E03CD0670F781F891F9A1FA11D680F24
:10059400791F8A1F911DA11D6A0F711D811D911D57
:1005A400A11D20D009F468943F912AE0269F1124CC
:1005B4003019305D3193DEF6CF010895462F477030
:1005C400405D4193B3E00FD0C9F7F6CF462F4F708B
:1005D400405D4A3318F0495D31FD4052419302D0E9
:1005E400A9F7EACFB4E0A69597958795779567958F
:1005F400BA95C9F700976105710508959B01AC018F
:100604000A2E06945795479537952795BA95C9F7B5
:0C061400620F731F841F951FA01D089526
:100620001F920F920FB60F9211242F933F934F9367
:100630005F936F937F938F939F93AF93BF93CF936A
:10064000DF93EF93FF9380917800909179009F93CF
:100650008F9387E191E0A0E0AF939F938F93C0E0E9
:10066000D1E0DF93CF930E942904BE0180E80E946D
:10067000D604682FCE010E94BC048DB79EB70796A2
:100680000FB6F8949EBF0FBE8DBFFF91EF91DF9123
:10069000CF91BF91AF919F918F917F916F915F911A
:1006A0004F913F912F910F900FBE0F901F90189573
:1006B0000F931F93CF93DF93FB01248121FD03C090
:1006C0008FEF9FEF2CC022FF16C0478150852581F8
:1006D00036814217530744F4A081B1819D012F5FF9
:1006E0003F4F318320838C93278130852F5F3F4F8D
:1006F0003087278314C08B01EC01FB010184F28554
:10070000E02D0995892BE1F6D80117968D919C91E2
:100710001897019618969C938E931797CE01DF91A8
:08072000CF911F910F91089584
:100728001F920F920FB60F9211242F938F939F93BE
:10073800EF93FF938091310281110EC0E091320254
:10074800E43650F481E08E0F80933202F0E080911D
:10075800C600EB5FFE4F808380913202833080F0C9
:1007680090E0FC01EC5FFE4F20812A3049F4FC0147
:10077800ED5FFE4F80818D3019F481E08093310266
:10078800FF91EF919F918F912F910F900FBE0F9036
:040798001F90189501
:10079C00CF93DF93CDB7DEB729970FB6F894DEBFB2
:1007AC000FBECDBF0E944C042EE031E040E089E04A
:1007BC00F9018E010F5F1F4FD801742F0E94120593
:1007CC00B80180E80E94D604682FC8010E94BC04BE
:1007DC000E9429050E941F058DB181608DB98EB1D3
:1007EC0081608EB90E94EC042FEF83ED90E32150D1
:0C07FC0080409040E1F700C00000F6CF04
:100808001F920F920FB60F9211248F93EF93FF93BD
:10081800E091330280913402E81758F481E08E0F9A
:1008280080933302F0E0E759FE4F80818093C60041
:1008380004C01092330210923402FF91EF918F910D
:0A0848000F900FBE0F901F9018953F
:10085200AFE0B0E0EFE2F4E00C9478040E891F8977
:1008620086E08D831A8309838FEF9FE79F838E83B0
:100872009E01255E3F4F488D598D6A8DCE010196AE
:100882000E948E00E885F985E00FF11F10822F96F5
:06089200E4E00C94AF0449
:10089800E1ECF0E0808180618083808188608083E2
:1008A800808180688083808180648083E0ECF0E0D0
:1008B80080818260808386E08093C20080E190E03E
:0C08C8009093C5008093C40078940895BC
:1008D4002F923F924F925F926F927F928F929F924C
:1008E400AF92BF92CF92DF92EF92FF920F931F933A
:1008F400CF93DF93CDB7DEB7CA1BDB0B0FB6F894EB
:08090400DEBF0FBECDBF099458
:10090C00CF92DF92EF926B01E82EA82FCB0141150D
:10091C00510531F48C199D09EF90DF90CF9008951B
:10092C00FC012491A7FD20812223A1F30196A11D96
:06093C0041505109ECCF0F
:100942002A88398848885F846E847D848C849B845D
:10095200AA84B984C884DF80EE80FD800C811B816B
:10096200AA81B981CE0FD11D0FB6F894DEBF0FBE9A
:06097200CDBFED01089568
:10097800DC0190E00BC0292F30E0FD01E20FF31FEE
:100988004081F901E759FE4F40839F5F961798F31E
:100998006093340281E080933302809169018093EF
:0409A800C6000895E8
:1009AC00CF92DF92EF926B01E82EA82FCB01FC01C6
:1009BC002491A7FD2081222319F00196A11DF7CFC8
:0C09CC008C199D09EF90DF90CF900895EA
:1009D800109285001092840088EE93E0909389002D
:1009E8008093880090938B0080938A00E1E8F0E080
:0809F800808182608083089574
:100A00001F920F920FB60F9211248F939F939EB156
:100A100081E089278EB99F918F910F900FBE0F9023
:040A20001F90189576
:100A2400992777FD05C005900D920197E1F7089588
:0A0A340001900D920197E1F708957B
:100A3E0084E480937C008EEB80937A0085E0809333
:040A4E007B0008958C
:100A52001092800088E08093810084E080936F0090
:040A620078940895E7
:040A66000C940000EC
:00000001FF
